:020000040800F2
:10000000982300209D01000809290008C923000841
:10001000E928000823030008B1460008000000009A
:10002000000000000000000000000000A52B0008F8
:10003000B503000800000000972A0008A72B00085D
:10004000B7010008B7010008B7010008B7010008B0
:10005000B7010008B7010008B7010008B70300089E
:10006000B7010008BD030008B7010008B701000888
:10007000B7010008B7010008B7010008B701000880
:10008000B7010008B7010008B7010008B701000870
:10009000B7010008B7010008B7010008B701000860
:1000A000B7010008B7010008B7010008B701000850
:1000B000B7010008B7010008B7010008B701000840
:1000C000B7010008B7010008B7010008B701000830
:1000D000B7010008B7010008B7010008B701000820
:1000E000B7010008B7010008B7010008B701000810
:1000F000B7010008852C0008B7010008B701000807
:10010000B7010008B7010008B7010008B7010008EF
:10011000B7010008B7010008B7010008B7010008DF
:10012000B7010008B7010008B7010008B7010008CF
:10013000B7010008B7010008B7010008B7010008BF
:10014000B7010008B7010008B70100080D29000831
:10015000B7010008B7010008B7010008B70100089F
:10016000B7010008B7010008B7010008B70100088F
:10017000B7010008B7010008B7010008000000003F
:10018000B7010008B7010008DFF80CD000F08CF8C8
:10019000004800477547000898230020064880471C
:1001A00006480047FEE7FEE7FEE7FEE7FEE7FEE75C
:1001B000FEE7FEE7FEE7FEE7312C000889010008B4
:1001C0002DE9F05F0546002092469B46884606468C
:1001D000814640241BE0284641464746224600F01F
:1001E00053F853465A46C01A914110D31146184647
:1001F000224600F03AF82D1A67EB01084F462246D6
:100200000120002100F031F817EB00094E41201EBB
:10021000A4F10104DFDC484631462A464346BDE8E6
:10022000F09F40EA01039B0703D009E008C9121FB1
:1002300008C0042AFAD203E011F8013B00F8013BA0
:10024000521EF9D27047D2B201E000F8012B491ECC
:10025000FBD270470022F6E710B513460A46044663
:100260001946FFF7F0FF204610BD202A04DB203A94
:1002700000FA02F1002070479140C2F1200320FAF9
:1002800003F3194390407047202A04DB203A21FAF7
:1002900002F00021704721FA02F3D040C2F120029F
:1002A0009140084319467047064C074D06E0E06848
:1002B00040F0010394E8070098471034AC42F6D3AD
:1002C000FFF766FF944D0008B44D000870B58C1818
:1002D00010F8015B15F0070301D110F8013B2A115A
:1002E00006D110F8012B03E010F8016B01F8016B47
:1002F0005B1EF9D12B0705D40023521E0DD401F843
:10030000013BFAE710F8013BCB1A921C03E013F80B
:10031000015B01F8015B521EF9D5A142D8D3002040
:1003200070BDFEE7002070470020704710B5002226
:100330000449054802F05EFF0449034802F054FFF7
:10034000002010BD94150020F0040020940D002022
:1003500010B50146034802F047FF024802F028FFAB
:10036000002010BDF0040020094A10B5D2F89022F8
:10037000D2F814220AB1012010BD0A4601460448F1
:1003800002F038FFBDE81040014802F091BF0000C4
:10039000F004002000B502F0A9FA024AC2E9040103
:1003A00000BD0000100000200149D1E904017047A0
:1003B000100000207047022000F0E6B8082000F08E
:1003C000E3B8704770B5040003D094F8200010B172
:1003D00004E0012070BD204600F082F8206801682A
:1003E00021F00201016000F0B9F90546052604E09C
:1003F00000F0B4F9401B0A2811D820684068800733
:10040000F6D42068016841F00101016000F0A6F90E
:1004100005460BE000F0A2F9401B0A2806D9606AE5
:1004200040F40030606284F82060D2E720684068C1
:10043000C007EFD0207E0128206801683DD021F060
:1004400080010160607E01282068016838D021F0B9
:1004500040010160A07E01282068016833D021F0AE
:1004600020010160E07E0128206801682ED041F063
:1004700010010160207F01282068016829D021F047
:1004800008010160607F01282068016824D021F004
:1004900004010160D4E902010843D4E904121143C4
:1004A00008436168491E08432168C86100206062F2
:1004B000012084F82000002070BD41F08001C0E7D9
:1004C00041F04001C5E741F02001CAE721F01001E9
:1004D000CFE741F00801D4E741F00401D9E700007B
:1004E00010B586B0044614216846FFF7B3FE1349E1
:1004F000206888421FD112480021026842F0007231
:100500000260006800F0007005900D481038026825
:1005100042F0080202600068022200F00800059024
:100520000320CDE90210CDE90002092004906946BC
:10053000044800F035F806B010BD0000006400402B
:1005400040380240000C024070B5044600F006F945
:100550000546601C02D004480078044400F0FEF810
:10056000401BA042FAD370BD94000020022803D0A3
:10057000082806D1FFF70EBF02490120086002F0EB
:100580004BB8704730000020044910B50A68024299
:1005900002D00860FFF7EAFF10BD0000143C0140E4
:1005A0002DE9F84FDFF87CB100224FF001084FF041
:1005B000030A4FF00F090BF1040E00BF0B6808FA95
:1005C00002F42340A3426ED14D68022D01D0122DBA
:1005D0000ED1D50800EB850CDCF820505607F70E3D
:1005E00009FA07F6B5430E69BE402E43CCF82060E9
:1005F000066855000F790AFA05FC07F0030726EA9A
:100600000C06AF40374307604E68012E05D0022E1E
:1006100003D0112E01D0122E0ED18668CF6826EAA3
:100620000C06AF40374387604668A6430C79C4F395
:100630000014944034434460C6688C6826EA0C0673
:10064000AC403443C4604C68E40065D5364C256842
:1006500045F480452560246822F0030504F48044B5
:100660000094324C2E19D6F8084895072F0F09FA36
:1006700007F5AC432E4DA84201D1002524E02D4DB5
:10068000A84201D101251FE02B4DA84201D102252E
:100690001AE02A4DA84201D1032515E0284DA842B1
:1006A00002D1042510E037E0264DA84201D10525EE
:1006B0000AE0254DA84201D1062505E0234DA842B8
:1006C00001D1072500E00825BD402543C6F808589C
:1006D000DBF800405D464E689C43F60300D51C43A2
:1006E0002C60DEF8004075464E689C43B60300D58A
:1006F0001C432C600B4D08352C684E689C43F60259
:1007000000D51C432C60074D0C352C684E689C436B
:10071000B60200D51C432C60521C102AFFF44EAFC9
:10072000BDE8F88F003C01404438024000300140F1
:10073000000002400004024000080240000C024099
:10074000001002400014024000180240001C024049
:100750000AB1816170470904FBE700000148806825
:10076000704700009400002070B504001BD094F87E
:100770003D00002520B984F83C50204600F044F9A3
:10078000242084F83D002068016821F00101016007
:1007900000F086FF4D4A6168914201D84C4900E063
:1007A0004C49884201D2012070BD4B492368B0FBFF
:1007B000F1F15E6826F03F060E435E606368934287
:1007C00006D94FF4967359434FF47A73B1FBF3F1A2
:1007D0002368491C1E6A26F03F063143196261688E
:1007E000914210D84900401EB0FBF1F2521CC2F3F6
:1007F0000B02042A01D2042022E0B0FBF1F0401CDD
:10080000C0F30B001CE0A368F3B301EBC10202EBE1
:100810000116421EB2FBF6F2521C42F4804212054F
:1008200049D093B301EBC10202EB0111401EB0FBB2
:10083000F1F0401CC0F30B0040F4804040F4004055
:100840002168CA694CF6FF739A431043C861D4E922
:100850000701084321680A6822F0C00210430860BB
:10086000D4E9030101432068826848F2FF339A43C8
:1008700011438160D4E9050108432168CA6822F068
:10088000FF021043C86001E00EE016E02068016836
:1008900041F0010101602564202084F83D002563BA
:1008A00084F83E50002070BD01EB4106421EB2FBB1
:1008B000F6F2521CB3E70120C2E701EB4101401EF2
:1008C000B0FBF1F0401CC0F30B00B7E7A0860100BD
:1008D00080841E0000093D0040420F002DE9F84FC2
:1008E0001F4690468A460446DDF82890FFF736FFFB
:1008F000054694F83D0020287FD119230122404964
:100900002046009501F0E2FD002876D194F83C00E5
:10091000012872D0012084F83C0020680168C907D2
:1009200003D1016841F0010101602068016821F4F0
:1009300000610160212084F83D00102084F83E0011
:1009400000262664C4F824806785608D20852D48A4
:10095000E0622B464A465146204601F04DFD90B9D3
:10096000206841698069009036E02A464946204661
:1009700001F02BFE50B1206C042804D120680168DE
:1009800041F4007101600120BDE8F88F606A2168C0
:1009900000780861606A401C6062618D491E618553
:1009A000218D491E89B2218522685369DB435B078B
:1009B0000BD451B100781061606A401C6062608D98
:1009C000401E6085208D401E20852A4649462046CF
:1009D00001F056FD0028CED1208D0028C5D154F855
:1009E0003D0B016841F400710160202004F81E09EC
:1009F000E67766770020C7E7FFE70220C4E700003C
:100A0000020010000000FFFF2DE9F04186B004460F
:100A100014216846FFF71EFC2B4A2168DFF8AC80E2
:100A20002A48122401250326042708F110089142C0
:100A300019D1016841F0020101600068694600F0C7
:100A40000200059030028DE8F1002148FFF7A8FD73
:100A5000D8F8001041F40011C8F80010D8F80000D0
:100A600000F400102BE01B4A914229D1016841F0AB
:100A700004010160016801F004010591016841F081
:100A8000010101600068694600F001000590501501
:100A90008DE8F1001048FFF783FD4FF480708DE87A
:100AA000F10069460D48FFF77BFDD8F8001041F4CE
:100AB0000001C8F80010D8F8000000F4000005900C
:100AC00006B0BDE8F081000000540040303802401C
:100AD00000040240005C00400008024000000240A8
:100AE00002488168027811448160704794000020B8
:100AF0000B4810B5016841F400710160016841F4D0
:100B000080610160016841F480710160032000F0A0
:100B10006FF8002000F006F800F024F8002010BD67
:100B2000003C024070B50D4D04464FF47A712878B0
:100B3000B1FBF0F00A490968B1FBF0F001F08DFA61
:100B400048B9102C07D200222146501E00F030F880
:100B500000206C6070BD012070BD0000940000207A
:100B6000A00000200A4808B5016841F480410160F6
:100B7000006800F4804000900548001F016841F0C3
:100B800080510160006800F08050009008BD0000B6
:100B900044380240002809DB00F01F020121914087
:100BA0004009800000F1E020C0F80011704700000B
:100BB000F0B40E4B1B680C46C3F30223C3F10705C8
:100BC000042D00D90425191D072901D2002300E0B6
:100BD000DB1E012606FA05F1491E214099409E4080
:100BE000761E16403143F0BC03F063BD0CED00E00F
:100BF000064900F0070208684FF6FF03184040EA74
:100C00000220034A10430860704700000CED00E02A
:100C10000000FA0570470068416200207047F0B597
:100C20000368586A39B19C6A4FF4827600EB144429
:100C300000204D1E0AE040EA024098620FE006EBF9
:100C40008007DF59401C04EB1744C0B2A842F6D31A
:100C500044EA02404FF4807202EB810158500020B8
:100C6000F0BDD0F8040402F076BDC1EBC10200EB88
:100C70008202D0F80404926C02F0C9BCC1EBC1023C
:100C800000EB8202D0F80404D2F8082202F022BD60
:100C9000D0F8040402F061BD70B504460B0601F003
:100CA0000F00C0EBC00104EB81014FF001024FF0D7
:100CB000000503D581F83D203C3103E081F8FD516A
:100CC00001F5FE71087094F8BC03012808D084F87F
:100CD000BC23206803F0B8F884F8BC53002070BD32
:100CE000022070BD70B5044601F00F0062689042AA
:100CF00001D9012070BD0B0601F00F01C1EBC1014C
:100D000004EB81014FF001024FF0000503D581F89B
:100D10003D203C3103E081F8FD5101F5FE718D70FD
:100D2000087094F8BC03012808D084F8BC2320681C
:100D300003F060FA84F8BC53002070BD022070BD3F
:100D400001F00F01C1EBC10100EB8100D0F81402EA
:100D500070472DE9F04104460F0601F00F00C0EB8B
:100D6000C00104EB81014FF001064FF0000503D5EF
:100D700081F83D603C3103E081F8FD5101F5FE71E1
:100D800008708A60CB704A7802B1C880022B00D10B
:100D90000D7194F8BC03012809D084F8BC63206865
:100DA00002F0A2FF284684F8BC53BDE8F08102207F
:100DB000FBE770B50C4601F00F05C5EBC50100EB74
:100DC0008101C1F81032C1F808220023C1F81432A1
:100DD00081F8FD3181F8FC51036901F5FE71012BA9
:100DE00000D10A612207027C006803D003F05AFA9E
:100DF000002070BD03F04CF9FAE770B504460D46CB
:100E000001F00F006168884201D9012070BD2906F8
:100E10004FF000064FF0010207D5C0EBC00104EB14
:100E2000810181F83D203C3107E0C5EBC50104EBB1
:100E3000810181F8FD6101F5FE718A70087094F8F6
:100E4000BC03012807D084F8BC23206803F0FEF916
:100E5000280702D007E0022070BD217C04F57172E2
:100E6000206803F09BF984F8BC63002070BD70B566
:100E70000C4601F00F05C5EBC50100EB81010B65C8
:100E80008A6400234B65012381F83D3001F83C5F03
:100E90000369012B00D10A612207027C006803D09C
:100EA00003F000FA002070BD03F0F2F8FAE700004A
:100EB0002DE9FC5F04460068002681464D4603F09C
:100EC0000AFB00287ED1206803F031FB002879D08E
:100ED000206803F02CFB800704D52068416901F0ED
:100EE00002014161206803F022FB010304F57170E7
:100EF0004FF0010B009076D5206803F0F7FA074613
:100F0000DFF810A46DE0F80769D0F1B2206803F0B3
:100F100006FB8046C00707D005EB4611C1F808BBA9
:100F20003146204601F0F8FC5FEA087033D52068AE
:100F3000016C00EB46100191D0F8081B2269012AD0
:100F4000019A0FD0F44B9A4214D1090403D54FF4FF
:100F50000041C0F8081B204600F0C4FA20690128AF
:100F60000FD013E0524505D9090403D54FF40041D1
:100F7000C0F8081B204600F0B5FA01985045EDD89E
:100F800004E020680121009A03F008F905EB4611FE
:100F90000820C1F8080B5FEAC86004D505EB4611CC
:100FA0001020C1F8080B5FEA88600FD5206901287E
:100FB00004D120680121009A03F0F0F8202005EB0D
:100FC000461101E0A4E10EE0C1F8080B5FEA884099
:100FD00005D505EB46114FF40050C1F8080B7F080A
:100FE000761C002F8FD1206803F0A1FA40034FF048
:100FF000000A60D5206803F072FA0746002658E020
:10100000F80754D0F1B2206803F077FA8046C007A1
:1010100026D006F00F020BFA02F0D5F834288243EE
:10102000C5F8342805EB4610C0F808B92069012836
:1010300007D1C6EBC60004EB8000D0E911211144B2
:101040008164F1B22046FFF710FE2069012807D124
:1010500036B9206D20B920680121009A03F09EF86E
:101060005FEA087004D505EB46110820C1F80809AD
:101070005FEAC86004D505EB46111020C1F80809E5
:101080005FEA486004D505EB46114020C1F8080925
:101090005FEA887004D505EB46110220C1F8080903
:1010A0005FEA086003D53146204601F0A3FC7F08C3
:1010B000761C002FA4D1206803F039FA002811DA39
:1010C000D5F8040820F00100C5F8040894F8F403EA
:1010D00001282BD0204600F0E9F92068416901F091
:1010E00000414161206803F022FA00050BD5D5F8D4
:1010F0000808C00702D0204600F01CFA20684169A9
:1011000001F400614161206803F011FAC0045DD56B
:10111000D5F8040820F00100C5F804081021206863
:1011200003F0BAF900214FF67F321AE084F8F4A3F5
:1011300000212046FFF76EFDCFE700BF05EB411011
:10114000C0F80829D0F8003923F40013C0F800399A
:10115000C0F8082BD0F8003B23F40013C0F8003B84
:10116000491C60688842E9D8D5F81C0840F0011095
:10117000C5F81C08206B60B1D5F8840840F00B005E
:10118000C5F88408D5F8440840F00B00C5F84408B9
:101190000CE0D5F8140842F22B010843C5F81408F6
:1011A000D5F8100840F00B00C5F81008D5F8000875
:1011B00020F4FE60C5F80008217C2068009A02F047
:1011C000EDFF2068416901F480514161206803F01E
:1011D000AEF9800418D5206802F0C6FD206803F03F
:1011E0006DF960B30320E06000F054FA2368014613
:1011F000227B184603F0D6F9204600F041F920681A
:10120000416901F400514161206803F090F9C00682
:1012100038D52068816921F010018161D9F82070EA
:1012200007F00F00C0EBC00004EB8005C7F343409C
:1012300005F5FE75022805D0062814D01DE0C4F877
:101240000CA0D1E747F6F0710F4216D0C7F30A128F
:1012500017464846E96803F06EF9E8683844E860E4
:10126000A869384408E008224846009903F063F969
:10127000A869C7F30A110844A8612068816941F090
:1012800010018161206803F052F9000707D520465C
:1012900000F010F92068416901F0080141612068FF
:1012A00003F045F9C00208D5F1B2204600F036F847
:1012B0002068416901F480114161206803F037F929
:1012C000800208D5F1B2204600F02CF82068416970
:1012D00001F400114161206803F029F9400007D5AD
:1012E0002046FFF7BEFC2068416901F08041416162
:1012F000206803F01CF940070AD520684568680794
:1013000002D52046FFF7C4FC2068416829434160AC
:10131000BDE8FC9F0A30544F0A31544FD0F8040402
:1013200002F06ABAD0F8040402F068BA2DE9F0417C
:101330008AB0040004D094F8BD03002520B108E071
:1013400001200AB0BDE8F08184F8BC53204600F0CB
:101350005BF8032084F8BD03206802F093FE04F1DB
:101360001001282288466846FEF75BFF94E80F00CC
:1013700002F014FD0226D0BB0021206803F0E9F83A
:10138000002001270FE000BFC0EBC00104EB81018A
:1013900081F83D7001F83C0FC880CD708D60CD6044
:1013A000401CC0B24D6161688142EDD8002011E05F
:1013B000C0EBC00104EB810181F8FD5181F8FC0113
:1013C00081F8FF51C1F80452C1F80852401CC0B264
:1013D000C1F8105261688142EAD828224146684625
:1013E000FEF71FFF94E80F0002F086FD10B184F8AD
:1013F000BD63A5E784F8385084F8BD73206802F017
:101400006FFD00209DE7000000B5006887B0B0F1D7
:10141000A04F2FD118480021026842F0010202605B
:10142000006800F0010005904FF4C05000900220C9
:10143000CDE90101032003900A20049069460F487A
:10144000FFF7AEF80C48001D016841F08001016013
:1014500009481430016841F48041016000680022AD
:1014600000F48040059011464320FFF7A1FB432084
:10147000FFF790FB07B000BD30380240000002408B
:1014800070B50446C068012570B1022801D0FEF78E
:1014900098FF2946D4F8040402F001FAD4F80404B1
:1014A000BDE8704002F0C1B90025F2E7D0F80404AD
:1014B00002F0E3B9D0F8040402F0E5B910B504462F
:1014C00090F8BC0301280BD0012084F8BC0384F8F9
:1014D0003810206803F054F8002084F8BC0310BDD5
:1014E000022010BDD0F8042400F57171104602F0FE
:1014F000E2B910B50446006894F8BC13012906D07F
:10150000012184F8BC13A16A012902D008E002205D
:1015100010BDA169012903D0816B41F48031816341
:10152000206802F0D1FC206802F0A0FF002084F8BF
:10153000BC0310BD10B50446D0F8040402F0FAF95B
:101540002068D0F8001E41F00101C0F8001E206A9A
:10155000002804D00248016841F00601016010BD76
:1015600010ED00E02DE9F0470E46050065D0DFF8EC
:101570001481D8F80000F7B200F00F00B04207D293
:1015800088F80070D8F8000000F00F00B04254D185
:1015900028683D4C810712D5400703D5206840F4E8
:1015A000E05020602878000703D5206840F46040B0
:1015B00020602068A96820F0F000084320602878A7
:1015C000C0072DD0304968680839012812D0022898
:1015D00013D0032811D00968890700292DDA216862
:1015E00021F0030101432160FFF7B8F8814641F281
:1015F000883A0EE009688903EFE709688901ECE79A
:10160000FFF7ACF8A0EB0901514502D90320BDE872
:10161000F0872068696800F00C00B0EB810FEFD113
:10162000D8F80010404601F00F01B14207D9077009
:10163000006800F00F00B04201D00120E7E72878F1
:10164000400705D52068E96820F4E0500843206091
:101650002878000706D52068296920F4604040EA10
:10166000C100206000F03CF82168084AC1F3031172
:10167000515CC840064908600020FFF753FA00207B
:10168000C5E70000003C0240083802407C4D0008DD
:10169000A00000200148006870470000A000002062
:1016A0000448054900680968044AC1F38221515C75
:1016B000C8407047A0000020083802408C4D000848
:1016C0000448054900680968044AC1F34231515C85
:1016D000C8407047A0000020083802408C4D000828
:1016E000154810B5006810F00C02144813D04110D2
:1016F000042A0FD0082A0ED10F4C241F2268236819
:1017000002F03F025B0207D52068C0F38810A0FBFF
:10171000010106E0084610BD2168C1F38811A1FB54
:1017200000010023FEF74CFD2168C1F30141491C73
:101730004900B0FBF1F010BD083802400024F4006D
:101740002DE9F84F050076D02878DFF8F8B2BE4CC6
:10175000C00749D0DBF800105846C1F381010129C8
:1017600008D00068C0F3810002280AD1201D00685B
:10177000400206D52068800336D568680028E2D08C
:1017800032E06868B0F5803F10D0B0F5A02F206837
:1017900010D020F480302060206820F48020206069
:1017A0006868A0B1FEF7DAFF06460CE0206840F456
:1017B0008030F4E740F480202060F7E7FEF7CEFFAA
:1017C000801B642873D820688003F7D50CE0FEF7EF
:1017D000C5FF064605E000BFFEF7C0FF801B64287A
:1017E000F0D820688003F7D42878DFF8608280077B
:1017F0004FF000093ED5DBF80010584611F00C0FF1
:1018000009D00068C0F3810002280BD18D48001F69
:101810000068400206D42068800715D5E8680128D2
:1018200009D111E0E868B8B10120C8F80000FEF75E
:1018300095FF064605E002E1FEF790FF801B0228B7
:10184000C0D820688007F7D52068296920F0F80003
:1018500040EAC10020600DE0C8F80090FEF77EFF6E
:10186000064604E0FEF77AFF801B02281FD8206896
:101870008007F7D42878000722D5724E744869692A
:101880006C3671B101210160FEF768FF074604E084
:10189000FEF764FFC01B022809D830688007F7D51F
:1018A0000EE0C0F80090FEF759FF074605E083E020
:1018B000FEF754FFC01B02287ED830688007F7D49B
:1018C0002878400768D5DFF87CA100270AF1380A9C
:1018D000DAF80000C0000BD4DAF8001041F08051B3
:1018E000CAF80010DAF80000012700F080500090DC
:1018F000584E3068C00510D4306840F480703060B5
:10190000FEF72CFF009005E0FEF728FF0099401A33
:10191000022851D83068C005F6D54A4EA868683606
:1019200001280FD00528306810D020F00100306069
:10193000306820F004003060A868B8B1FEF70EFFF0
:1019400000900FE0306840F00100F4E740F0040040
:101950003060F7E7FEF702FF0099411A41F2883044
:10196000814264D830688007F4D50EE0FEF7F6FEB9
:10197000009007E0FEF7F2FE0099411A41F288302C
:10198000814254D830688007F4D42FB1DAF80010BF
:1019900021F08051CAF80010A869C0B3DBF800102C
:1019A000C1F3810102294AD00228484607D0C8F86D
:1019B0006000FEF7D3FE00E039E005463AE0474616
:1019C000C8F86000FEF7CAFE064604E0FEF7C6FE51
:1019D000801B02282BD820688001F7D4D5E90701A5
:1019E0000843A96A1C4A490802EB01416A6A41EAB4
:1019F0008211084395F82C1040EA01611148001F3C
:101A0000016001203866FEF7A9FE054605E014E0F6
:101A1000FEF7A4FE401B022809D820688001F7D5F4
:101A20000BE000BFFEF79AFE401B022802D90320FC
:101A3000BDE8F88F20688001F4D40020F8E7012089
:101A4000F6E7000008380240003802400000474234
:101A5000800E4742007000400000FFFF70B5040098
:101A600005D00025A56294F8510010B106E00120D0
:101A700070BD84F85050204600F030F8022084F801
:101A800051002068016821F040010160D4E90101A2
:101A90000843D4E903121143084361690843218BC9
:101AA00001F400710843E1690843216A0843A16A0F
:101AB000084321680860A069042101EA1040616AB6
:101AC0000843216848602068C16921F40061C16150
:101AD0006565012084F85100002070BDF0B587B025
:101AE000044614216846FEF7B5FB324B27680022F6
:101AF000314902240325052630489F4219D12E4B37
:101B000014331F6847F480571F601B6803F4805329
:101B100005930B6843F002030B60096802AB01F008
:101B2000020105913821CDE9001483E8640069467B
:101B30001DE0214BDFF888C0103367451BD11F68BB
:101B400047F480471F601B6803F4804305930B68CC
:101B500043F002030B60096802AF01F00201059136
:101B60004FF46041CDE9001487E864006946FEF750
:101B700017FD07B0F0BD13488742FAD1186840F44A
:101B800000401860186800F400400590086840F0B4
:101B9000040008600868029200F0040005904FF409
:101BA000E050CDE900040620CDE90350694606481F
:101BB000DDE7000000300140303802400004024000
:101BC00000380040003C0040000802402DE9F84F7A
:101BD000044640680025984616460F464FF0040B11
:101BE000B0F5827F01D1A06888B194F85000012837
:101BF00018D0012084F85000FEF7B0FD814694F81B
:101C000051004FF0000A01280ED002257DE084F833
:101C100051B013460A462046CDF8008000F02CF95A
:101C2000BDE8F88F0220FBE7002F6DD0002E6BD0AF
:101C300084F851B0C4F854A0A763A687E687C4F817
:101C400030A0A4F834A0A4F836A0C4F840A0C4F88A
:101C500044A0A068B0F5004F04D12068016821F4C9
:101C60008041016020680168490603D4016841F0A1
:101C700040010160E068D8B139E020688168C90797
:101C800009D0007BA16B0870A06B401CA063E08FA3
:101C9000401EE0870CE0FEF761FDA0EB0901414525
:101CA00003D3B8F1FF3F03D036E0B8F1000F33D0D3
:101CB000E08F0028E1D11DE020688168C90709D0C4
:101CC000C068A16B0880A06B801CA063E08F401EE1
:101CD000E0870CE0FEF742FDA0EB0901414503D38C
:101CE000B8F1FF3F03D017E0B8F1000F14D0E08F38
:101CF0000028E1D14A464146204600F0D8FE08B10E
:101D000020206065606D00B10125012084F851003C
:101D100084F850A0284683E70325F6E72DE9F84F1D
:101D2000044690F8500000271D46164689460128B3
:101D30000DD04FF0010B84F850B0FEF70FFD804638
:101D400094F85100BA46012804D002278EE0022000
:101D5000BDE8F88FB9F1000F7DD0002E7BD00320B5
:101D600084F85100C4F854A0C4F83090A686E686E2
:101D7000C4F838A0A4F83CA0A4F83EA0C4F844A03D
:101D8000C4F840A0A068B0F5004F04D120680168F5
:101D900041F48041016020680168490603D401686C
:101DA00041F040010160E068B0F5006F606803D069
:101DB00030B3012E24D040E008B1012E1CD1206B9D
:101DC00021680088C86006E020688168890709D515
:101DD000216B0988C160206B801C2063E08E401E4F
:101DE000E08609E0FEF7BAFCA0EB0800A84202D3A7
:101DF000681C01D031E07DB3E08E0028E4D11FE003
:101E0000206B21680078087306E0206881688907E4
:101E100009D5216B09780173206B401C2063E08E8B
:101E2000401EE08609E0FEF799FCA0EB0800A842FE
:101E300002D3681C01D010E075B1E08E0028E4D117
:101E400042462946204600F053FE08B12020606536
:101E5000A06820B107E008E0FFE7032706E020685C
:101E6000C16880680090606D00B1012784F851B0AE
:101E700084F850A038466BE72DE9F84F044690F8F7
:101E8000500000270A9E1D4692468B464FF00109DE
:101E900001280ED0012084F85000FEF75FFC804638
:101EA00094F85100616801280CD0B1F5827F07D108
:101EB00002E00220BDE8F88FA16809B9042801D02A
:101EC0000227C2E0BBF1000F27D0BAF1000F24D0E7
:101ED0001DB394F85100042802D0052084F8510065
:101EE00000206065C4F838A0E587A587C4F830B045
:101EF000E586A5862064606420680168490603D4ED
:101F0000016841F040010160E068B0F5006F606871
:101F100005D0E8B3012D46D07FE0012795E008B158
:101F2000012D39D1206B21680088C860206B801C8E
:101F30002063E08E401EE0862EE0206881688907DD
:101F40000FD5E18E69B1B9F1010F0AD1216B098872
:101F5000C160206B801C2063E08E401EE0864FF045
:101F6000000920688168C9070CD0E18F51B1C068B1
:101F7000A16B0880A06B801CA063E08F401EE087EF
:101F80004FF00109FEF7EAFBA0EB0800B04200E0C9
:101F900009E001D3701C50D1E08E0028CDD1E08F34
:101FA0000028CAD13FE0206B216800780873206BBD
:101FB000401C2063E08E401EE0862EE02068816891
:101FC00089070FD5E18E69B1B9F1010F0AD1216BF3
:101FD00009780173206B401C2063E08E401EE08670
:101FE0004FF0000920688168C9070CD0E18F51B11A
:101FF000C068A16B0870A06B401CA063E08F401EFE
:10200000E0874FF00109FEF7A9FBA0EB0800B04202
:1020100002D3701C01D010E07EB1E08E0028CDD13B
:10202000E08F0028CAD142463146204600F060FDCC
:1020300028B101272020606507E0032705E0A0689C
:1020400018B92068C16880680090012084F85100A8
:10205000002084F8500038462CE710B5401EB0F13F
:10206000807F01D3012010BD4FF0E02460610F217B
:10207000601702F01EFB0020A061072020610020F5
:1020800010BD7047704710B5040003D094F83D00B0
:1020900010B107E0012010BD002084F83C0020466C
:1020A00000F00CF8022084F83D00211D206800F0AB
:1020B000F3FD012084F83D00002010BD08B5006844
:1020C0000B49884212D10B48016841F480710160CC
:1020D0000068002200F48070009011462D20FEF769
:1020E00067FDBDE808402D20FEF754BD08BD000087
:1020F00000200040403802400168CA6842F00102F6
:10210000CA600068816801F00701062903D00168F0
:1021100041F00101016000207047704770B504462E
:10212000006801694FF00005C943890715D4C168EB
:10213000C943890711D4E91E016101202077206875
:1021400080698007204602D0FFF7E7FF04E000F037
:1021500098F8204600F096F8257720680169C94371
:10216000490717D4C168C943490713D46FF0040164
:102170000161022020772068806910F4407F2046AA
:1021800002D0FFF7CAFF04E000F07BF8204600F021
:1021900079F8257720680169C943090716D4C16811
:1021A000C943090712D46FF00801016104202077A8
:1021B0002068C0698007204602D0FFF7AEFF04E028
:1021C00000F05FF8204600F05DF82577206801698F
:1021D000C943C90617D4C168C943C90613D46FF0EF
:1021E00010010161082020772068C06910F4407F49
:1021F000204602D0FFF791FF04E000F042F82046AD
:1022000000F040F8257720680169C943C90708D163
:10221000C168C943C90704D1891E0161204600F085
:1022200032F820680169C943090609D4C168C94365
:10223000090605D46FF0800101612046FFF721FFF8
:1022400020680169C943490609D4C168C9434906E0
:1022500005D46FF040010161204600F015F82068B8
:102260000169C94389060BD4C168C943890607D4EB
:102270006FF0200101612046BDE87040FFF702BF0A
:1022800070BD704770477047704770B5040004D048
:1022900094F83900002510B106E0012070BD84F8E3
:1022A0003850204600F022F8242084F839002068B5
:1022B000C16821F40051C160204600F051FD206842
:1022C000016921F4904101612068416921F02A01EE
:1022D00041612068C16841F40051C160E56320207C
:1022E00084F8390084F83A00002070BDF0B587B05A
:1022F000044614216846FDF7ADFF2C4926682C489A
:1023000002220123032407258E4217D128491431C4
:102310000E6846F010060E60096801F01001059184
:10232000016841F0010101600068694600F00100A8
:10233000059060028DE83D001E4819E01C491E4FC3
:102340001031BE4218D10E6846F400360E6009689E
:1023500001F400310591016841F008010160006855
:10236000694600F00800059060208DE83D001348A4
:10237000FEF716F907B0F0BD114FBE42FAD10E6854
:1023800046F480260E60096801F4802105910168F9
:1023900041F0020101600068694600F0020005900A
:1023A0004FF440608DE83D000648E1E70010014031
:1023B000303802400000024000440040000C02405F
:1023C0000048004000040240FEE701684A69D24329
:1023D00052050FD46FF480624A61002140F8301F2B
:1023E000202242738173026942F004020261017388
:1023F0000120704700207047F8B50446C06A1E46A9
:102400000D461746082807D0012805D010F5803F53
:1024100002D0206B122804D12068016841F4807139
:102420000160134600224FF001112046009600F093
:102430004DF808BB2069B0F5804F0ED0062021680A
:1024400000EAD51040F0F000086133463A460B49E7
:10245000204600F06FF878B902E005F0FE0000E0D9
:10246000E8B221680861054933463A46891F20468B
:1024700000F060F8002800D00120F8BD080001003D
:1024800070B516460D4604460DE02046FFF79DFF49
:1024900008B1012070BD681C05D0FEF75FF9801BF4
:1024A000A84207D835B120684069C0434007ECD442
:1024B000002070BD002044F8300F20216173A0730C
:1024C000216941F0200121612073E2E72DE9F04705
:1024D0001E4690460D460446C1F30747DDF820909E
:1024E00008E0701C06D0FEF739F9A0EB0900B042F5
:1024F0000FD876B12068012F18D0806925EA000036
:102500000004000C14D000214145EAD00020BDE8B1
:10251000F087002044F8300F20216173A0732169F7
:1025200041F02001216120730120F0E74069E5E7D7
:102530000121E9E72DE9F0479A4691460E46044607
:1025400000254FF02008C1F3074725E020684069C7
:10255000C043400514D42068016841F40071016053
:1025600021686FF480604861256384F83D8084F8B9
:102570003E50206C40F00400206484F83C501FE082
:10258000B9F1FF3F08D0FEF7E9F8A0EB0A01494591
:102590000CD8B9F1000F09D02068012F13D0806941
:1025A00026EA00000004000C0BD0CFE744F8305FAF
:1025B00084F80D80A573206940F020002061257308
:1025C0000120BDE8F0874069EAE770B516460D4680
:1025D00004460DE02046FFF7F8FE08B1012070BD6B
:1025E000681C05D0FEF7BAF8801BA84207D835B1A1
:1025F00020684069C0430006ECD4002070BD002074
:1026000044F8300F20216173A073216941F020014B
:1026100021612073E2E7000000B500F067F9024A8B
:10262000C2E9060100BD0000100000200149D1E907
:102630000601704710000020F0B500230A24302561
:1026400037261F4611E000BFB4EB107F02D905EB1F
:10265000107C01E006EB107C01F813C001EB430C89
:1026600000015B1C8CF80170DBB29342ECD3F0BD2F
:102670000948084901601021416000218160C16062
:1026800001614161017641768176C17601774177BA
:10269000FDF798BE00640040D80100202DE9F04FFE
:1026A00087B014216846FDF7D5FD4C480024016829
:1026B00041F010010160016801F01001059101680D
:1026C00041F080010160016801F08001059101681D
:1026D00041F002010160016801F002010591016809
:1026E00041F004010160016801F0040105910168F5
:1026F00041F001010160016801F0010105910168EB
:1027000041F0080101600068DFF8D4B000F0080073
:102710000590002205215846FEF71AF8DFF8C4801C
:102720004FF48056002231464046FEF711F8DFF89C
:10273000B890F700002239464846FEF709F8DFF85E
:10274000ACA0002280215046FEF702F80520009040
:102750000125CDE90154694658460394FDF720FF51
:10276000082000902248CDE9010469465846FDF74B
:1027700017FF0096CDE90154694640460394FDF7E2
:102780000FFF0097CDE90154694648460394FDF7D1
:1027900007FF80200090CDE901546946504603941C
:1027A000FDF7FEFE022000901248CDE901056946C2
:1027B0005846FDF7F5FE002211460720FEF7F8F90E
:1027C0000720FEF7E7F9002211460920FEF7F0F98D
:1027D0000920FEF7DFF907B0BDE8F08F303802407E
:1027E000001002400004024000000240000C0240C1
:1027F00000001110000021100B480A494FF400722C
:1028000001604FF48271416000218160C16001610B
:10281000C0E90512C1610162416281620A21C1629F
:10282000FFF71CB900300140A80200200B480A49FC
:102830004FF4007201604FF48271416000218160A9
:10284000C1600161C0E90512C1610162416281623A
:102850000A21C162FFF702B90038004000030020DE
:102860000B480A494FF4007201604FF482714160D5
:1028700000218160C1600161C0E90512C16101628E
:10288000416281620A21C162FFF7E8B8003C004062
:102890005803002010B500220F49104800F090FEA8
:1028A00008B1FDF78EFD0E490C4801F069F808B13A
:1028B000FDF787FD0B49094800F08EFC08B1FDF7D4
:1028C00080FD064801F0B2F8002803D0BDE81040B2
:1028D000FDF777BD10BD000034000020F00400209B
:1028E0008001002084000020FEE70000054A4FF62A
:1028F000E85110685268484300211268526A8018F3
:102900004941704710000020704700000148FEF761
:10291000CFBA00008C0700202DE9F0410446006882
:102920000E46016C00EB4615D5F8080B27692023ED
:102930004FF40042012F08D02C4FB9424FD101046F
:1029400049D500BFC5F8082B4DE0DFF8A4C05FEA09
:10295000007E04F5717711D5614503D9000401D5D6
:10296000C5F8082B2046FEF7BDFD3A460121206838
:1029700001F014FC0820C5F8080B34E05FEA806E13
:1029800002D5C5F8083B2EE010F0280F2BD1614589
:1029900001D90004D6D4C6EBC60004EB8000D5F8FC
:1029A000102BD0F80412C2F312028A1AC0F81422B3
:1029B000D0F808221144C0F80812F1B22046FEF700
:1029C0005DF986B9D4F8100268B93A460121206849
:1029D00001F0E4FB07E0800601D5C5F8083BF1B241
:1029E0002046FEF74BF90020BDE8F0810A31544F34
:1029F0000A30544F2DE9F84F0E46C1EBC60100EBEB
:102A0000810481460568D4E914103C34884202D917
:102A10000120BDE8F88F081AA168814200D208465B
:102A2000C01C870805EB46181BE000BFA0EB010A9D
:102A3000A068504500D282460AF10300870899F841
:102A4000100000901FFA8AF3F2B22846E16801F004
:102A50001DFEE16801EB0A00E060A16901EB0A00DC
:102A6000A061D8F8180980B2B84205D3D4E90501AD
:102A7000814201D20028D9D1D4E90501884208D881
:102A800006F00F0101208840D5F834188143C5F8BD
:102A900034180020BDE7704710B54FF4C871072007
:102AA00002F0A4F8BDE810400A20FDF74DBD38B58E
:102AB00004464068B0F5827F0BD1A068B0F5004FA6
:102AC00002D0B0F5806F04D12068036823F0400382
:102AD00003600B46009200228021204600F018F887
:102AE000002804D0606D40F020006065032038BDF0
:102AF00038B50B46009204460022802100F008F809
:102B0000002804D0606D40F020006065032038BDCF
:102B10002DE9F0411D4617460E460446DDF81880A3
:102B200008E0681C06D0FDF719FEA0EB0800A842DB
:102B30000BD255B12068806836EA000030D0002002
:102B4000B842EED10020BDE8F0812068416821F054
:102B5000E00141606068B0F5827F0BD1A068B0F5FC
:102B6000004F02D0B0F5806F04D12068016821F0D9
:102B700040010160A06AB0F5005F09D120680168DA
:102B800021F4005101602068016841F400510160A6
:102B9000012084F85100002084F850000320D2E77F
:102BA0000120CDE77047FDF79BBF000030B593B023
:102BB00030216846FDF74EFB14210CA8FDF74AFBB7
:102BC00019480025016841F080510160006800F05B
:102BD000805011901548016841F4804101600068FF
:102BE000022400F480401190012000900004019024
:102BF0008001CDE9064004200890A820CDE9090411
:102C000007200B906846FEF79BFD0CA90F2081E87A
:102C100031004FF4A0500F90E002109005210CA855
:102C2000FEF7A0FC13B030BD4038024000700040F9
:102C30001048016841F4700101600F48016841F0DB
:102C4000010101600C4A00210832116002680B4B3F
:102C50001A400260031D0A4A1A60026822F48022A8
:102C6000026005480C30016002495806803908604E
:102C70007047000088ED00E000380240FFFFF6FEDC
:102C80001030002410B501F0FDFFBDE810400148F0
:102C9000FFF744BAB0030020F0B50268254C264D7A
:102CA000264E274F274B4FF0804CA04209D060455D
:102CB00007D0A84205D0B04203D0B84201D0984214
:102CC00004D122F0700E4A6842EA0E02A0421BD0E4
:102CD000604519D0A84217D0B04215D0B84213D0E1
:102CE000984211D0184DA8420ED0184DA8420BD0D2
:102CF000174DA84208D0174DA84205D0164DA8423E
:102D000002D0164DA84203D122F44075CA682A4366
:102D10004D6922F080022A4302608A68C2620A6812
:102D20008262A04201D0984201D109690163012168
:102D30004161F0BD00000140000400400008004077
:102D4000000C0040000401400040014000440140EC
:102D50000048014000180040001C004000200040D6
:102D60002DE9F041044600680169E26821F4405110
:102D7000114301612169A068E26908436169114357
:102D800022680843D16849F20C6399430143D1603A
:102D900020684169A26921F4407111434161E269EF
:102DA0006425B2F5004F9748974922684FF03208E2
:102DB0003FD08A4201D082427CD1FEF781FC00EBF9
:102DC000C00101EB001061688900B0FBF1F6FEF76D
:102DD00077FC00EBC00101EB001061688900B0FBDB
:102DE000F1F0B0FBF5F06FF01801484306EB8001FD
:102DF00008EB0110B0FBF5F000F0F006FEF760FC08
:102E000000EBC00101EB001061688900B0FBF1F03C
:102E1000B0FBF5F006EB0016FEF752FC00EBC0012C
:102E200001EB001061688900B0FBF1F7FEF748FC88
:102E3000D2E08A4201D082423DD1FEF741FC00EB54
:102E4000C00101EB001061684900B0FBF1F0B0FB7C
:102E5000F5F00601FEF734FC00EBC00101EB0010B9
:102E600061684900B0FBF1F7FEF72AFC00EBC001F6
:102E700001EB001061684900B0FBF1F0B0FBF5F028
:102E80006FF01801484307EB800108EBC100B0FB6D
:102E9000F5F000F0F80006EB4006FEF711FC00EB41
:102EA000C00101EB001061684900B0FBF1F7FEF7CB
:102EB00007FC3CE055E0FEF7F3FB00EBC00101EB43
:102EC000001061684900B0FBF1F0B0FBF5F00601BD
:102ED000FEF7E6FB00EBC00101EB00106168490062
:102EE000B0FBF1F7FEF7DCFB00EBC00101EB0010DB
:102EF00061684900B0FBF1F0B0FBF5F06FF018012C
:102F0000484307EB800108EBC100B0FBF5F000F08F
:102F1000F80006EB4006FEF7C3FB00EBC00101EB37
:102F2000001061684900B0FBF1F7FEF7B9FB00EB58
:102F3000C00101EB001061684900B0FBF1F0B0FB8B
:102F4000F5F06FF01801484307EB800108EBC10072
:102F5000B0FBF5F000F00700216830448860BDE860
:102F6000F081FEF79DFB00EBC00101EB00106168F2
:102F70008900B0FBF1F6FEF793FB00EBC00101EB1B
:102F8000001061688900B0FBF1F0B0FBF5F06FF064
:102F90001801484306EB800108EB0110B0FBF5F087
:102FA00000F0F006FEF77CFB00EBC00101EB001027
:102FB00061688900B0FBF1F0B0FBF5F006EB00169C
:102FC000FEF76EFB00EBC00101EB001061688900A9
:102FD000B0FBF1F7FEF764FB00EBC00101EB001062
:102FE00061688900B0FBF1F0B0FBF5F06FF01801FB
:102FF000484307EB800108EB0110B0FBF5F000F04F
:103000000F00A9E700140140001001402DE9F04134
:10301000D0F89832D0F89022DAB101EB810400EBBD
:1030200084040025E6694EB1C1EBC10703EB8703B9
:103030005B6CB6FBF3F703FB176323B1C2F81452C2
:103040000020BDE8F08100231A46E56100F07BFC1A
:10305000F6E70220F5E770B50546D0F8904200F09B
:1030600087FBC4F80C02D5F8900248B1D5F8941249
:10307000D4F80402CA6804F503719047002070BDBB
:10308000022070BD70B504460026812100F0B6FA1A
:10309000002501212046E56200F0B0FA8221204699
:1030A000C4F8585100F0AAFA2564D4F8900248B147
:1030B000D4F8940204F5247440688047206801F035
:1030C00031FB2560304670BD10B5D0E9A44159B13F
:1030D00094F80002FF2807D08B6894F8012221465B
:1030E0009847FF2084F80002002010BD0A210180CB
:1030F00000487047A8000020432101800048704725
:10310000F80000204321018000487047B4000020EF
:1031100043210180004870473C0100202DE9F04127
:1031200004460026007C4FF40077012590B340232D
:1031300002228121204600F063FB4023E562022247
:103140000121204600F05CFB082303228221204657
:10315000C4F8585100F054FB4FF40770256401F097
:10316000D5FBC4F89002F8B10546D4F89402006883
:1031700080470020C5F81402C5F81802207CD5F855
:10318000042298B140230121204600F045FB30463F
:10319000BDE8F081FFE73B4602228121204600F096
:1031A0002FFB3B46E562CAE70126F0E73B46EAE72C
:1031B00010B5D0F8901269B1027C002AD1F804222F
:1031C00005D04023012100F027FB002010BD4FF463
:1031D0000073F7E7022010BD02460220002902D04A
:1031E0000020C2F894127047D0F89002C0F8041280
:1031F00000207047D0F89002C0F81022C0F80812E2
:10320000002070472DE9FC410546D0F8907200205F
:103210008DF80000ADF80400064608780C4610F062
:10322000600121D020293BD1E288AAB10006607854
:1032300007D5D5F894128B6839469847E288394605
:1032400026E087F80002A07987F80102E288394673
:10325000284600F06AF828E0D5F894126078002239
:103260008B682146984720E0607820B10A2809D071
:103270000B2815D110E095F87402032810D1022212
:1032800001A905E095F87402032809D101226946D5
:10329000284600F064F808E095F87402032804D08A
:1032A0002146284600F036F802263046BDE8FC816B
:1032B00010B5D0F89012A1B1D1F814220AB10120B2
:1032C00010BD0122C1F81422D1F810220263B1F816
:1032D000102293B2D1F80822812100F034FB0020A3
:1032E00010BD022010BD10B5D0F88C225268904756
:1032F000002010BD134610B50A46002100F08CFADC
:10330000002010BD134610B50A46002100F01BFB3B
:10331000002010BD10B50446802100F0F9FA2046C7
:10332000BDE81040002100F0F3BA10B50323C0F847
:103330004821C0F86C32C0F84C2113460A460021DF
:1033400000F06AFA002010BD10B505210023C0F876
:103350006C121A46194600F05FFA002010BD10B535
:103360000223C261C0F86C32026213460A46002191
:1033700000F0E9FA002010BD10B504210023C0F8C8
:103380006C121A46194600F0DEFA002010BD00004B
:1033900010B50A46024903A000F0E2F8004810BD4B
:1033A000940B002043444320436F6E66696700001E
:1033B00012200880004870475400002010B50A46CB
:1033C000024903A000F0CCF8004810BD940B002087
:1033D00043444320496E7465726661636500000072
:1033E00004200880004870475000002010B50A46AD
:1033F000024903A000F0B4F8004810BD940B00206F
:1034000053544D6963726F656C656374726F6E6956
:103410006373000010B50A46024903A000F0A0F84B
:10342000004810BD940B002053544D333220566990
:10343000727475616C20436F6D506F727400000080
:1034400010B51A2008800A480168001D0468001D94
:103450000068081809D008220649FFF7EDF8054969
:10346000042210312046FFF7E7F80248801E10BD05
:10347000107AFF1F6A000020F8B5044648880D4600
:10348000010A08294BD2DFE801F04A0409174A4A29
:103490004048D4F88812207C0A6832E0207C02265A
:1034A0000028D4F88C0205D0C16A684688470146D6
:1034B000467041E0816AF8E7C0B206282FD2DFE803
:1034C00000F003080D12171CD4F88812207C4A68FB
:1034D00017E0D4F88812207C8A6812E0D4F88812A9
:1034E000207CCA680DE0D4F88812207C0A6908E0C4
:1034F000D4F88812207C4A6903E0D4F88812207C32
:103500008A6969469047014616E0207C38B9D4F8AC
:103510008C02416B68468847F5E7207C20B129463C
:103520002046FFF7F7FEF8BDD4F88C02016B684621
:103530008847014607204870BDF8000048B1EA8876
:1035400052B1824200D90246ADF800202046FFF772
:1035500006FFE8880028E6D12046FFF70DFFF8BDFA
:1035600070B5002300281ED00446002502E06D1C23
:10357000EDB2641C2678002EF9D1022404EB450438
:1035800014801278CA545B1C0322CA5400245B1CAA
:1035900006E0CA545B1CDAB28C54521CD3B2401CF5
:1035A0000278002AF5D170BD01004FF0000004D070
:1035B000012901D0022901D0022070470120704763
:1035C00010B580B1D0F88C3213B10023C0F88C3222
:1035D00009B1C0F88812012180F87412027000F05D
:1035E000CBF8002010BD022010BD10B5D0F8980215
:1035F000FDF778FBBDE81040FFF7D6BF10B5D0F857
:103600009802FDF749FBBDE81040FFF7CDBF2DE95B
:10361000F0411746044651B1D4F88C0242691AB100
:1036200094F87402032851D00220BDE8F081D4F848
:103630006C32002504F11400022B03D0042B3AD085
:10364000C3B33CE0D0E903639E4207D9F11AC160DD
:103650008AB239462046FFF755FE12E08068B0FB7B
:10366000F3F103FB110199B9984211D3D4F8701208
:1036700088420DD2002211462046FFF743FEC4F8CF
:10368000705200231A461946204600F0C5F816E08D
:10369000D4F88C02C16829B194F87402032801D1CE
:1036A000204688478021204600F032F92046FFF767
:1036B0004BFE04E0FFE78021204600F029F994F852
:1036C0007802012804D184F8785201E0204690471E
:1036D0000020AAE770B51546044649B1D4F88C021B
:1036E00082691AB194F87402032830D0022070BDA8
:1036F000D4F86C1204F5A070032902D005291ED05D
:1037000027E0D0E903218A420BD9531AC360084647
:10371000834200D303469AB229462046FFF7EAFDCA
:1037200017E0D4F88C02016929B194F874020328D7
:1037300001D1204688472046FFF71EFE09E0002001
:103740000146C4F86C02204600F0E2F801E0204691
:103750009047002070BD0020704710B5012180F80F
:103760007412D0F88C22017952689047002010BD65
:10377000D0F89802FDF7E4BA10B5017839BB1549C5
:103780000222C1F80404C0F898124FF0A04008606B
:10379000042048600020C1E90320C1E90620086236
:1037A0004862C86208630846FDF7C0FD08B1FCF72F
:1037B00008FE80210748FDF72EFA40220021054827
:1037C000FDF72DFA802201210248FDF728FA00209A
:1037D00010BD00008C0700200A0601F07F01D0F820
:1037E0009802C1EBC10100EB810002D590F83E00C8
:1037F000704790F8FE017047002070470020704726
:1038000010B51C461346D0F898022246FDF7A1FADF
:10381000BDE81040FFF7C8BE10B5D0F89802FDF71C
:10382000C8FABDE81040FFF7BFBE70B500220446DD
:1038300040231146FFF7E4FF40260125C4F85061FC
:103840003346002280212046C4F84451FFF7D8FFB8
:103850006662A56184F874520020C4F86C0260604E
:10386000C4F87C02D4F8900228B1D4F88C0200216C
:10387000426820469047002070BD90F8751280F88D
:1038800074120020704710B590F87412032904D107
:10389000D0F88C12C96901B18847002010BD0174AD
:1038A0000020704710B5D0F89802FDF707FEBDE87C
:1038B0001040FFF779BE70B5044600F5207005464C
:1038C00000F04AF80120C4F86C02B4F88602C4F88B
:1038D000700294F8800210F01F010AD001290DD067
:1038E000022910D000F08001204600F011F80020DD
:1038F00070BD2946204600F09EF8F8E7294620468C
:1039000000F0CAF9F3E72946204600F01DF9EEE77A
:1039100010B5D0F89802FDF770FABDE81040FFF737
:1039200043BE10B5D0F89802FDF7E3FDBDE81040A6
:10393000FFF73ABE90F8741280F87512042180F8EF
:1039400074120020704710B5D0F89802FDF78FFA76
:10395000BDE81040FFF728BE0A7802704A7842702E
:103960008A78CB7802EB032242800A794B7902EB0A
:10397000032282808A79C97902EB0121C1807047D4
:103980000246002011B1C2F88C1270470220704725
:1039900010B5D0F88C2202241AB11268904700B9F1
:1039A0000024204610BD000070B50E461E4D8978DB
:1039B00004462970012931D894F8740202280BD0EA
:1039C00003280FD031462046FFF7A4FC2978204673
:1039D000BDE87040FFF787BCD9B10320616084F86F
:1039E000740209E071B16068884212D0C1B2204609
:1039F000FFF779FC297861602046FFF7C9FF0228AC
:103A00000CD006E0022084F8740220466160FFF7C3
:103A10006AFC2046BDE87040FFF7AEBC3146204648
:103A2000BDE87040FFF776BCA400002010B5FFF79A
:103A300078FF002010BD2DE9F0410A78002612F031
:103A4000600208D0202A01D0402A70D1D0F88C2200
:103A5000926890476DE04B78002201250A2B66D2D0
:103A6000DFE803F0405D6557650805652C29FFF721
:103A700003FD5EE004468888D8B9C888C8B948887C
:103A8000802816D200F07F0794F87402032810D023
:103A900084F8767239462046FFF704FF2046FFF788
:103AA0006BFC1FB1022084F8740242E084F8745267
:103AB0003FE020463BE0FFF777FF3AE0CB88012B61
:103AC00035D190F87432012B04D0022B02D0032B95
:103AD0002DD104E08260012200F1080116E00122EC
:103AE000011D13E090F87422012A03D0022A01D0AC
:103AF000032A1CD1CA88022A19D1C560D0F87C12C9
:103B000009B10321C160022200F10C01FFF727FC7B
:103B10000FE0498801290CD1C0F87C5211E090F8DF
:103B20007432012B08D0022B06D0032B04D0FFF7F0
:103B3000F1FB3046BDE8F08149880129F9D1C0F890
:103B40007C22FFF719FCF4E72DE9F0410A46044610
:103B500010780027097910F060030AD0202B01D0DB
:103B6000402B50D1D4F88C021146836820469847E8
:103B70008FE0C0F34110012806D05078D0B301285F
:103B80002AD003283FD107E0D4F88C02114683687D
:103B90002046BDE8F041184794F87402022802D08C
:103BA000032872D10AE071B380296ED02046FFF756
:103BB000AFFE80212046FFF7ABFE6AE0508838B99F
:103BC00031B1802904D0D08810B92046FFF7A0FE7B
:103BD0002046FFF7D1FB5CE094F874020228E2D0A3
:103BE000032852D1508898BB4806F1D02046FFF7F1
:103BF000FCFCEDE7FFE794F874020026022803D0EE
:103C0000032842D112E040E009B180293DD10806E5
:103C100001F07F0000EB800004EB800101D514313E
:103C200001E001F5A07102220E602AE0080601F011
:103C30000F0000EB800004EB80000AD5806920B300
:103C400001F07F0000EB800004EB800514350BE0F1
:103C50001FE0D0F84401C0B101F07F0000EB80000C
:103C600004EB800505F5A07541B1802906D02046FA
:103C7000FFF7B2FD10B10120286000E02E600222A3
:103C800029462046FFF76BFB03E011462046FFF76D
:103C900041FB3846BDE8F08170B5054608780C4612
:103CA00010F0600003D0202801D0402816D195F8EC
:103CB0007402012803D0022801D003280ED12079F4
:103CC00001280BD8D5F88C02826828469047E188F5
:103CD000014306D12846FFF74FFB02E02846FFF7D5
:103CE00019FB002070BD000070B50A78012302F0B6
:103CF0000F054E78AB401B4CD0F81C58012E17D046
:103D000045EA0343C0F81C3800EB4210D0F8002B02
:103D100012040BD4D0F8002B0B89C978C3F30A0323
:103D20001A4344EA81410A43C0F8002B002070BDC9
:103D30009BB21D43C0F81C5800EB4210D0F800396C
:103D40001B04F3D4D0F800390D89C978C5F30A05EE
:103D500089042B4341EA82510B432343C0F80039C5
:103D6000E4E7000000800010D0F800196FF30A01AA
:103D7000C0F80019D0F80818C1F34101022905D193
:103D8000D0F8001941F00301C0F80019D0F8041868
:103D900041F48071C0F804180020704770B50446E3
:103DA00006990A9E049D0D98012916D0E06840F0FE
:103DB0004000E060204600F02BF8A16B1EB321F418
:103DC0008031A163012D07D1A16841F00601A160F6
:103DD000A16841F02001A16070BDA16B21F4803188
:103DE000A163E168094A1140E160E16821F44011F2
:103DF000E160012803D1E06840F48010E0602046D3
:103E000000F006F8DEE741F48031DAE7BFFFBDFFDE
:103E100001220C4902E0521C8A420BD80369002B94
:103E2000F9DA026942F001020261012204E0521C47
:103E30008A4201D9032070470369DB07F7D10020CC
:103E400070470000400D030030B50B784D7801221B
:103E500003F00F0402FA04F4012DD0F83C5817D0F7
:103E600025EA0444C0F83C48D0F81C48097801F021
:103E70000F018A4024EA0241C0F81C1800EB4310ED
:103E8000D0F8001B0E4A1140C0F8001B002030BDC6
:103E9000A4B2A543C0F83C58D0F81C48097801F0FA
:103EA0000F018A4091B28C43C0F81C4800EB4310CC
:103EB000D0F80019034A1140C0F80019E6E70000E5
:103EC0000078F3EF007833EC10B5D0F8041821F047
:103ED0000201C0F804180320FCF736FB002010BDD7
:103EE00010B5D0F8041841F00201C0F804180320FE
:103EF000FCF72AFB002010BD2DE9F04F0025DDE97D
:103F00000BCB0E460446DDF84090099F2846294613
:103F100004EB8002C2F80411401C0F28F8D3B9F159
:103F2000000F204618D0006820F400122260A06B19
:103F300040F40022A26308468846C4F8000ED4F874
:103F400000182046C4F80018BCF1010F10D0D0F8BA
:103F5000001841F0030110E0806B40F40012A263EE
:103F6000A06B20F40022A263A06B20F48022E1E782
:103F7000D0F800180BB141F00101C0F80018102171
:103F800000F08AFA00B10125204600F075FA00B170
:103F900001254046C4F81088C4F81488C4F81C8869
:103FA00000214FF000634FF090484FF67F3A14E045
:103FB00004EB4112D2F800C9BCF1000F06DA11B1CE
:103FC000C2F8008904E0C4F8003901E0C2F8000931
:103FD000C2F81009C2F808A9491C8E42E8D800218D
:103FE00015E000BF04EB4112D2F800CBBCF1000F8A
:103FF00006DA11B1C2F8008B04E0C4F8003B01E01E
:10400000C2F8000BC2F8100BC2F808AB491C8E4274
:10401000E8D8D4F8101821F480722146C4F810288A
:10402000012F08D1134AC1F83028D1F83018124AAC
:104030001143C4F83018A0616FF0804060611FB96F
:10404000A06940F01000A061A0690C490843A0617C
:10405000BBF1000F03D0A06940F00800A061B9F1E6
:10406000010F03D1A06906490843A0612846BDE8B5
:10407000F08F0000000180000300010000383C8048
:1040800004000040816821F0010181600020704738
:1040900070B50D784E78404CEBB200EB4313012E17
:1040A0001FD0D3F8100B6FF31200C3F8100BD3F826
:1040B000100B2040C3F8100B486908B188684861AC
:1040C000D3F8100B40F40020C3F8100BD3F8100BFA
:1040D0008C68C4F312042043C3F8100B012A4ED09D
:1040E00051E04E69002ED3F8106932D06FF31206FA
:1040F000C3F81069D3F810692640C3F810694E69F7
:104100008C68A64200D94C61D3F8104944F40024CD
:10411000C3F81049D3F810494E69C6F31206344368
:10412000C3F81049012A22D04A694AB1D0F834288C
:10413000097801F00F03012199400A43C0F834289F
:1041400000EB4510D0F8001941F00441C0F8001907
:104150001FE02640C3F81069D3F8104944F4002446
:10416000C3F81049D3F810496FF31204D8E709696E
:104170000029E5D000EB4512C2F81419E0E7C86841
:1041800008B1C3F8140BD3F8000B40F00440C3F897
:10419000000B002070BD0000FFFF07E010B5036CAE
:1041A000134CA34203D9D0F8003B002B1EDB0023A5
:1041B000C0F8103BD0F8103B43F40023C0F8103B8C
:1041C000D0F8103B43F01803C0F8103BD0F8103B78
:1041D00043F0C043C0F8103B012907D1C0F8142BAD
:1041E000D0F8001B41F08021C0F8001B002010BD5A
:1041F0000A30544F4A780B78012A00EB43100BD059
:10420000D0F8002B22F40012C0F8002BC978032943
:1042100014D0022912D017E0D0F8002922F400129D
:10422000C0F80029C978032901D002290CD1D0F89F
:10423000001941F08051C0F8001905E0D0F8001BCA
:1042400041F08051C0F8001B002070470A784B787D
:10425000D1B200EB4110012B12D0D0F8001B002985
:1042600006DB2AB1D0F8001B21F08041C0F8001B0A
:10427000D0F8001B41F40011C0F8001B002070476B
:10428000D0F80019002906DB2AB1D0F8001921F076
:104290008041C0F80019D0F8001941F40011C0F8AD
:1042A0000019EBE7F8B50C784F786F4DE3B26FF07B
:1042B000604600EB4313012F26D0D3F8104B6FF369
:1042C0001204C3F8104BD3F8104B2C40C3F8104B1A
:1042D0004C69002C6FD08D682C44641EB4FBF5F43F
:1042E000D3F8105BA4B206EAC4463543C3F8105BAA
:1042F000D3F8105B8E686643C6F312042543C3F8F7
:10430000105B012A7ED096E04F691FB3D3F8107975
:104310006FF31207C3F81079D3F810792F40C3F860
:1043200010794F698D682F447F1EB7FBF5F506EABB
:10433000C545D3F810693543C3F81059D3F810595F
:104340004E69C6F312063543C3F81059CD78012DD6
:1043500010D01BE0D3F810692E40C3F81069D3F8D1
:10436000105945F40025C3F81059D3F810596FF3CC
:10437000120509E0D3F8105925F0C045C3F81059CB
:10438000D3F8105945F00055C3F81059012A13D03D
:10439000CB78012B18D04B692BB3D0F834380D787B
:1043A00005F00F060125B5402B43C0F83438CB7813
:1043B000012B09D017E02BE00B69002BF7D000EBA5
:1043C0004415C5F81439F2E7D0F80838DB0500EBDE
:1043D0004413D3F8005902D445F0005501E045F0EC
:1043E0008055C3F8005900EB4413D3F8004944F05A
:1043F0000444C3F80049CB78012B32D100928A8A59
:1044000093B200E013E00A78C96800F03FF928E0B1
:10441000D3F8104B8D68C5F312052C43C3F8104B2D
:10442000D3F8104B44F40024C3F8104B69E7CA6872
:104430000AB1C3F8142BC97801290CD1D0F80808A7
:10444000C005D3F8000B02D440F0005001E040F06A
:104450008050C3F8000BD3F8000B40F00440C3F8C1
:10446000000B0020F8BD0000FFFF07E0816841F06D
:104470000101816000207047002110220261054A7D
:10448000491C914201D9032070470369DB06F7D428
:1044900000207047400D03000022202343EA8111D1
:1044A00001610549521C8A4201D903207047036902
:1044B0009B06F7D400207047400D0300D0F8080891
:1044C00010F0060004D0022803D0062801D00020F6
:1044D000704703207047406900F001007047D0F832
:1044E0001818D0F81C08084080B27047D0F8181887
:1044F000D0F81C080840000C704710B5D0F81038F0
:10450000D0F8342801F00F0400EB4110E24002F033
:104510000102D0F8080943EAC212104010BD00EBB6
:104520004111D1F8081BD0F81408084070474169C0
:10453000806908407047D21C10B59308002200F52E
:10454000805002E00468521C10C19A42FAD3084617
:1045500010BD10B5C26822F0C042C260012902D06D
:1045600029B1012010BDC16841F0005102E0C168CD
:1045700041F08041C1603220FBF7E6FF002010BD12
:10458000D0F8002822F4FE62C0F80028D0F80028F5
:104590004FF4FE6303EA01110A43C0F8002800202B
:1045A00070470000032A3ED1264A274B0A449A420C
:1045B00001D20F2138E0254A254B0A449A4201D204
:1045C0000E2131E0234A244B0A449A4201D20D21A4
:1045D0002AE0224A224B0A449A4201D20C2123E0CB
:1045E000204A214B0A449A4201D20B211CE01F4A67
:1045F0001F4B0A449A4201D20A2115E01D4A1E4B64
:104600000A449A420FD31D4A1D4B0A449A4201D2D2
:10461000082109E01B4A11441B4A914201D207219B
:1046200002E0062100E00921C26822F47052C26053
:10463000C2684FF4705303EA81210A43C26000202C
:1046400070470000405327FF00350C00401E1BFF41
:1046500040420F0000DC0BFF804F1200808CF9FEFF
:1046600020D6130060B6E5FE60E3160000D3CEFE50
:1046700040771B00C05BB3FEC091210000CA91FED1
:1046800020753800E05459FEE09C410010B5029CB2
:1046900064B9DB1C9C0800EB0230002300F580505D
:1046A00002E004C902605B1CA342FAD3002010BDE3
:1046B000FEE70907090E002804DB00F1E02080F87E
:1046C0000014704700F00F0000F1E02080F8141D86
:1046D000704702E008C8121F08C1002AFAD17047CB
:1046E0007047002001E001C1121F002AFBD1704772
:1046F0000B4910B5002008600146372000F026FB6A
:10470000002802DA4FF0FF3010BD0121382000F000
:104710001DFB002802DA6FF0010010BD012010BD62
:104720000000002010B5002821D0114B0022001FEE
:10473000196803E0814203D80A4649680029F9D183
:1047400052B11368841A9C4204D100681844106066
:10475000104602E0506000E0186039B102680B1AA0
:10476000934203D10B681A4402604968416010BD4E
:10477000B80100205A4D08B562202880FCF7B8F92E
:10478000FEF714FAFDF78AFFFDF772FF5549A5F50C
:104790003270554E00240160C0E901640F14C0E975
:1047A000034744618461C4610462FBF7DDFFA5F542
:1047B0001D704E490160C0E90164C0E903474461CE
:1047C0008461C4610462FBF7CFFFFEF715F8FEF7C2
:1047D0002DF8FEF745F8A5F1D80045494FF4E1362C
:1047E0000160C0E901640C27C460C0E9044784612A
:1047F000C461FDF74AFDA5F198003E490160C0E99A
:104800000164C460C0E904478461C461FDF73DFDF3
:10481000A5F1580038490160C0E90164C460C0E9ED
:1048200004478461C461FDF730FDFEF733F8A5F558
:104830008C70324901605321C0E901144FF6E751F1
:10484000C0E903148461FDF71EFC012280212C487D
:10485000FBF77EFF8DF80040642301226946A5F531
:104860000870FDF75BFA0A20FBF76EFE00F0E0F837
:104870000A20FBF769FEFFF73BFFA5F58C7000F0FF
:10488000FBF9FEF709F9DFF87C801F4F0026386836
:104890000028FCD0761C322E0ADB002601220421DF
:1048A0004046FBF755FF002204214046FBF750FF2E
:1048B0003C600B48183800F067F909491422183990
:1048C000281DFBF7AEFCFDF7B1FEC5E90801FBF7BB
:1048D0006BFDC5E9060128210148FBF745FDD6E738
:1048E000C804002000540040A0860100005C004085
:1048F00000100140004400400048004000200040FB
:10490000000C02400010024030000020F0B50B30D7
:10491000154D20F007010024144A0FE003688B4274
:104920000BD38B4205D95E1A43184768C3E9006769
:1049300000E04368136002C004E0021D1068002814
:10494000ECD12046002802D1286808B10020F0BD33
:10495000064A07481060074A121A22F00702C0E907
:10496000002401202860D7E7BC010020B801002006
:104970009C1D0020981F0020F8B504461748184BCE
:104980000E460168D869154619B1082808D00820D4
:1049900002E0302804D03020D8611148FDF75EF8DD
:1049A00044F080000F4C8DF800000022802120464A
:1049B000FBF7CEFE6423012269460948FDF7AEF9F4
:1049C00064232A4631460648FDF700F9012280217A
:1049D0002046FBF7BDFE0120F8BD000000000020CE
:1049E000A8020020000C024038B58DF800000E48E7
:1049F0008DF80110C169302903D03021C161FDF764
:104A00002DF80A4C002280212046FBF7A1FE6423EA
:104A1000022269460448FDF781F9012280212046DF
:104A2000FBF796FE012038BDA8020020000C0240D2
:104A300010B501216B2000F089F9002802DA4FF04F
:104A4000FF3010BD20216A2000F080F9002802DA32
:104A50006FF0010010BD0D21242000F077F900282F
:104A600002DA6FF0020010BD00210A2000F032F9D6
:104A700080216B2000F06AF90120FBF765FD012120
:104A80000B2000F027F901216B2000F05FF90028CE
:104A900002DA6FF0030010BD00F0FCF8712806D0B8
:104AA00000F0F8F8732802D06FF0040010BD002168
:104AB0006C2000F04BF9002802DA6FF0050010BD01
:104AC00008211C2000F042F9002802DA6FF00600ED
:104AD00010BD10211B2000F039F9002802DA6FF018
:104AE000070010BD01211D2000F030F9002802DA76
:104AF0006FF0080010BD01211A2000F027F90028EE
:104B000002DA6FF0090010BD0021192000F01EF933
:104B1000002802DA6FF00A0010BD20216A2000F0A0
:104B200015F9002802DA6FF00B0010BD0D212420CA
:104B300000F00CF9002802DA6FF00C0010BD00F054
:104B4000B9F8482802D06FF00D0010BD16210A20D8
:104B500000F0C0F8002802DA6FF0110010BD6420E8
:104B6000FBF7F2FC01216B2000F0F0F8002802DADC
:104B70006FF0120010BD034A0721032000F04AF82D
:104B8000012010BDC001002010B5164904460120C7
:104B90000860154A15213B2000F066F8002802DA6B
:104BA0004FF0FF3010BD1048018849BA218041887C
:104BB00049BA6180818849BAA180C18849BA6182B5
:104BC000018949BAE180418949BA2181818949BA7B
:104BD0006181C189A181018AE181408A208201200D
:104BE00010BD000000000020C00100201CB5032300
:104BF0008DF80610090A8DF805108DF80400642060
:104C0000009001AA90210248FBF768FE1CBD00003D
:104C10000002002070B50C46064615468C21252062
:104C200000F094F8002802DA4FF0FF3070BD3146F2
:104C3000262000F08BF8002802DA6FF0010070BD2A
:104C400044F08001272000F081F8002802DA6FF09C
:104C5000020070BD0120FBF777FC2A462146BDE823
:104C600070404920AFF30080134610B50A4619463C
:104C7000FFF782FE012010BD01494860FDF73CBAF4
:104C80001000002002480168491C016070470000C4
:104C90001000002010B5064A01217520FFF7E4FF3F
:104CA000002802DA4FF0FF3010BD0148007810BD37
:104CB000C001002010B5064A01210020FFF7AAFF1D
:104CC000002802DA4FF0FF3010BD0148007810BD17
:104CD000C001002070B50C4605460C21252000F0CF
:104CE00035F8002802DA4FF0FF3070BD2946262043
:104CF00000F02CF8002802DA6FF0010070BD2146A8
:104D0000632000F023F8002802DA6FF0020070BD83
:104D10008121272000F01AF8002802DA6FF0030042
:104D200070BD094A01212846FFF774FF002802DA06
:104D30006FF0040070BD04480078A04201D101204A
:104D400070BD6FF0050070BDC001002070B50C464D
:104D50000546FFF749FE0A20FBF7F6FB064A01214C
:104D60002846FFF781FF04480078A04201D10120C6
:104D700070BD4FF0FF3070BDC0010020000000008A
:104D800000000000010203040607080900000000FB
:104D900001020304B44D000800000020C00100001F
:104DA000CC020008784E0008C0010020D821000085
:104DB000E2460008013413B1331B08E1041AED0484
:104DC0001315341B0841041A910C1ABD041704036F
:104DD00009041201140202021640830440572602FD
:104DE00001020301031A1A03132D031B0829041AD5
:104DF00025041A5104192F1182105324F4130A06A2
:104E000032022A401C1C090243571125C0320904F2
:104E10001B01020B130524161001052401100901C2
:104E200004240202052406170107058203081C104A
:104E300009048D320A1D07050102432C070581076D
:104E40000938442A40072A8107112B0907440A3BE5
:104E50000444131D31140885301408053242081A21
:104E6000C90C1A0D041A5704C11A05281AF9141A84
:084E700011089AED1C0000007E
:040000050800018965
:00000001FF
